{
  "address": "0x3d9273fe7bB4F4080f21Bcb1F670A847A56Bdabc",
  "abi": [
    {
      "inputs": [
        {
          "internalType": "address",
          "name": "gateway_",
          "type": "address"
        },
        {
          "internalType": "address",
          "name": "gasReceiver_",
          "type": "address"
        },
        {
          "internalType": "string",
          "name": "chainName_",
          "type": "string"
        },
        {
          "internalType": "address",
          "name": "tokenAddress_",
          "type": "address"
        }
      ],
      "stateMutability": "nonpayable",
      "type": "constructor"
    },
    {
      "inputs": [],
      "name": "AlreadyInitialized",
      "type": "error"
    },
    {
      "inputs": [],
      "name": "AlreadyRegistered",
      "type": "error"
    },
    {
      "inputs": [],
      "name": "GatewayToken",
      "type": "error"
    },
    {
      "inputs": [],
      "name": "InvalidAddress",
      "type": "error"
    },
    {
      "inputs": [],
      "name": "InvalidDestinationChain",
      "type": "error"
    },
    {
      "inputs": [],
      "name": "NotApprovedByGateway",
      "type": "error"
    },
    {
      "inputs": [],
      "name": "TransferFromFailed",
      "type": "error"
    },
    {
      "anonymous": false,
      "inputs": [
        {
          "indexed": false,
          "internalType": "string",
          "name": "sourceChain",
          "type": "string"
        },
        {
          "indexed": false,
          "internalType": "string",
          "name": "sourceAddress",
          "type": "string"
        }
      ],
      "name": "FalseSender",
      "type": "event"
    },
    {
      "inputs": [],
      "name": "chainName",
      "outputs": [
        {
          "internalType": "string",
          "name": "",
          "type": "string"
        }
      ],
      "stateMutability": "view",
      "type": "function"
    },
    {
      "inputs": [
        {
          "internalType": "bytes32",
          "name": "commandId",
          "type": "bytes32"
        },
        {
          "internalType": "string",
          "name": "sourceChain",
          "type": "string"
        },
        {
          "internalType": "string",
          "name": "sourceAddress",
          "type": "string"
        },
        {
          "internalType": "bytes",
          "name": "payload",
          "type": "bytes"
        }
      ],
      "name": "execute",
      "outputs": [],
      "stateMutability": "nonpayable",
      "type": "function"
    },
    {
      "inputs": [
        {
          "internalType": "bytes32",
          "name": "commandId",
          "type": "bytes32"
        },
        {
          "internalType": "string",
          "name": "sourceChain",
          "type": "string"
        },
        {
          "internalType": "string",
          "name": "sourceAddress",
          "type": "string"
        },
        {
          "internalType": "bytes",
          "name": "payload",
          "type": "bytes"
        },
        {
          "internalType": "string",
          "name": "tokenSymbol",
          "type": "string"
        },
        {
          "internalType": "uint256",
          "name": "amount",
          "type": "uint256"
        }
      ],
      "name": "executeWithToken",
      "outputs": [],
      "stateMutability": "nonpayable",
      "type": "function"
    },
    {
      "inputs": [],
      "name": "gasService",
      "outputs": [
        {
          "internalType": "contract IAxelarGasService",
          "name": "",
          "type": "address"
        }
      ],
      "stateMutability": "view",
      "type": "function"
    },
    {
      "inputs": [],
      "name": "gateway",
      "outputs": [
        {
          "internalType": "contract IAxelarGateway",
          "name": "",
          "type": "address"
        }
      ],
      "stateMutability": "view",
      "type": "function"
    },
    {
      "inputs": [],
      "name": "tokenAddress",
      "outputs": [
        {
          "internalType": "address",
          "name": "",
          "type": "address"
        }
      ],
      "stateMutability": "view",
      "type": "function"
    },
    {
      "inputs": [
        {
          "internalType": "string",
          "name": "destinationChain",
          "type": "string"
        },
        {
          "internalType": "string",
          "name": "destinationContract",
          "type": "string"
        },
        {
          "internalType": "string",
          "name": "recipient",
          "type": "string"
        },
        {
          "internalType": "uint256",
          "name": "amount",
          "type": "uint256"
        }
      ],
      "name": "transferToCosmos",
      "outputs": [],
      "stateMutability": "payable",
      "type": "function"
    }
  ],
  "transactionHash": "0xb85684d05c0ccc1d195f0995f559d25eac60d2194c0a322e0e2b043b6dda2567",
  "args": [
    "0x4D147dCb984e6affEEC47e44293DA442580A3Ec0",
    "0x0000000000000000000000000000000000000000",
    "binance",
    "0xDE41332a508E363079FD6993B81De049cD362B6D"
  ],
  "numDeployments": 1,
  "solcInputHash": "40bcc398471959f3cacd5f65e290c508",
  "bytecode": "0x60c06040523480156200001157600080fd5b506040516200159438038062001594833981016040819052620000349162000189565b836001600160a01b0381166200005d5760405163e6c4247b60e01b815260040160405180910390fd5b6001600160a01b03908116608052831660a052815162000085906000906020850190620000b0565b50600180546001600160a01b0319166001600160a01b039290921691909117905550620002dd915050565b828054620000be90620002a0565b90600052602060002090601f016020900481019282620000e257600085556200012d565b82601f10620000fd57805160ff19168380011785556200012d565b828001600101855582156200012d579182015b828111156200012d57825182559160200191906001019062000110565b506200013b9291506200013f565b5090565b5b808211156200013b576000815560010162000140565b80516001600160a01b03811681146200016e57600080fd5b919050565b634e487b7160e01b600052604160045260246000fd5b60008060008060808587031215620001a057600080fd5b620001ab8562000156565b93506020620001bc81870162000156565b60408701519094506001600160401b0380821115620001da57600080fd5b818801915088601f830112620001ef57600080fd5b81518181111562000204576200020462000173565b604051601f8201601f19908116603f011681019083821181831017156200022f576200022f62000173565b816040528281528b868487010111156200024857600080fd5b600093505b828410156200026c57848401860151818501870152928501926200024d565b828411156200027e5760008684830101525b809750505050505050620002956060860162000156565b905092959194509250565b600181811c90821680620002b557607f821691505b60208210811415620002d757634e487b7160e01b600052602260045260246000fd5b50919050565b60805160a0516112766200031e6000396000818161013c01526107630152600081816087015281816101c20152818161034201526107ec01526112766000f3fe6080604052600436106100705760003560e01c8063491606581161004e578063491606581461010a5780636a22d8cc1461012a5780639d76ea581461015e578063a97e22d31461017e57600080fd5b8063116191b6146100755780631a98b2e0146100c65780631c93b03a146100e8575b600080fd5b34801561008157600080fd5b506100a97f000000000000000000000000000000000000000000000000000000000000000081565b6040516001600160a01b0390911681526020015b60405180910390f35b3480156100d257600080fd5b506100e66100e1366004610b72565b610191565b005b3480156100f457600080fd5b506100fd610283565b6040516100bd9190610ca8565b34801561011657600080fd5b506100e6610125366004610cc2565b610311565b34801561013657600080fd5b506100a97f000000000000000000000000000000000000000000000000000000000000000081565b34801561016a57600080fd5b506001546100a9906001600160a01b031681565b6100e661018c366004610d66565b6103fa565b600085856040516101a3929190610e09565b604051908190038120631876eed960e01b825291506001600160a01b037f00000000000000000000000000000000000000000000000000000000000000001690631876eed990610207908e908e908e908e908e9089908d908d908d90600401610e42565b602060405180830381600087803b15801561022157600080fd5b505af1158015610235573d6000803e3d6000fd5b505050506040513d601f19601f820116820180604052508101906102599190610ea1565b61027657604051631403112d60e21b815260040160405180910390fd5b5050505050505050505050565b6000805461029090610ec3565b80601f01602080910402602001604051908101604052809291908181526020018280546102bc90610ec3565b80156103095780601f106102de57610100808354040283529160200191610309565b820191906000526020600020905b8154815290600101906020018083116102ec57829003601f168201915b505050505081565b60008282604051610323929190610e09565b604051908190038120635f6970c360e01b825291506001600160a01b037f00000000000000000000000000000000000000000000000000000000000000001690635f6970c390610381908b908b908b908b908b908990600401610efe565b602060405180830381600087803b15801561039b57600080fd5b505af11580156103af573d6000803e3d6000fd5b505050506040513d601f19601f820116820180604052508101906103d39190610ea1565b6103f057604051631403112d60e21b815260040160405180910390fd5b5050505050505050565b610404338261048a565b6000610411848484610598565b90506103f088888080601f01602080910402602001604051908101604052809392919081815260200183838082843760009201919091525050604080516020601f8c018190048102820181019092528a815292508a91508990819084018382808284376000920191909152508692503491506107469050565b600154604080516001600160a01b038581166024830152306044830152606480830186905283518084039091018152608490920183526020820180516001600160e01b03166323b872dd60e01b1790529151600093849316916104ec91610f3f565b6000604051808303816000865af19150503d8060008114610529576040519150601f19603f3d011682016040523d82523d6000602084013e61052e565b606091505b5091509150600082801561055a57508151158061055a57508180602001905181019061055a9190610ea1565b905080158061057357506001546001600160a01b03163b155b1561059157604051631e4e7d0960e21b815260040160405180910390fd5b5050505050565b60606000806105a630610853565b8686866040516020016105bb93929190610f5b565b60408051601f19818403018152908290526105da939291602001610f7f565b6040516020818303038152906040529050600061067960405180606001604052806040518060400160405280600c81526020016b39b7bab931b2afb1b430b4b760a11b81525081526020016040518060400160405280600e81526020016d736f757263655f6164647265737360901b8152508152602001604051806040016040528060078152602001661c185e5b1bd85960ca1b815250815250610a9e565b6106f5604051806060016040528060405180604001604052806006815260200165737472696e6760d01b815250815260200160405180604001604052806006815260200165737472696e6760d01b815250815260200160405180604001604052806005815260200164627974657360d81b815250815250610a9e565b83604051602001610708939291906110a5565b60408051601f1981840301815290829052915061072c906001908390602001611108565b604051602081830303815290604052925050509392505050565b80156107d557604051630c93e3bb60e01b81526001600160a01b037f00000000000000000000000000000000000000000000000000000000000000001690630c93e3bb9083906107a29030908990899089903390600401611129565b6000604051808303818588803b1580156107bb57600080fd5b505af11580156107cf573d6000803e3d6000fd5b50505050505b604051631c92115f60e01b81526001600160a01b037f00000000000000000000000000000000000000000000000000000000000000001690631c92115f9061082590879087908790600401611187565b600060405180830381600087803b15801561083f57600080fd5b505af11580156103f0573d6000803e3d6000fd5b604051606082811b6bffffffffffffffffffffffff191660208301529060009060340160408051601f198184030181528282528051838301909252601083526f181899199a1a9b1b9c1cb0b131b232b360811b602084015280519093509091906000906108c19060026111c2565b6108cc9060026111e1565b67ffffffffffffffff8111156108e4576108e46111f9565b6040519080825280601f01601f19166020018201604052801561090e576020820181803683370190505b509050600360fc1b816000815181106109295761092961120f565b60200101906001600160f81b031916908160001a905350600f60fb1b816001815181106109585761095861120f565b60200101906001600160f81b031916908160001a90535060005b83811015610a945782600486838151811061098f5761098f61120f565b016020015182516001600160f81b031990911690911c60f81c9081106109b7576109b761120f565b01602001516001600160f81b031916826109d28360026111c2565b6109dd9060026111e1565b815181106109ed576109ed61120f565b60200101906001600160f81b031916908160001a90535082858281518110610a1757610a1761120f565b602091010151815160f89190911c600f16908110610a3757610a3761120f565b01602001516001600160f81b03191682610a528360026111c2565b610a5d9060036111e1565b81518110610a6d57610a6d61120f565b60200101906001600160f81b031916908160001a905350610a8d81611225565b9050610972565b5095945050505050565b606060408051600380825260808201909252600091816020015b6060815260200190600190039081610ab857905050905060005b6003811015610b2257838160038110610aed57610aed61120f565b6020020151828281518110610b0457610b0461120f565b60200260200101819052508080610b1a90611225565b915050610ad2565b5092915050565b60008083601f840112610b3b57600080fd5b50813567ffffffffffffffff811115610b5357600080fd5b602083019150836020828501011115610b6b57600080fd5b9250929050565b60008060008060008060008060008060c08b8d031215610b9157600080fd5b8a35995060208b013567ffffffffffffffff80821115610bb057600080fd5b610bbc8e838f01610b29565b909b50995060408d0135915080821115610bd557600080fd5b610be18e838f01610b29565b909950975060608d0135915080821115610bfa57600080fd5b610c068e838f01610b29565b909750955060808d0135915080821115610c1f57600080fd5b50610c2c8d828e01610b29565b9150809450508092505060a08b013590509295989b9194979a5092959850565b60005b83811015610c67578181015183820152602001610c4f565b83811115610c76576000848401525b50505050565b60008151808452610c94816020860160208601610c4c565b601f01601f19169290920160200192915050565b602081526000610cbb6020830184610c7c565b9392505050565b60008060008060008060006080888a031215610cdd57600080fd5b87359650602088013567ffffffffffffffff80821115610cfc57600080fd5b610d088b838c01610b29565b909850965060408a0135915080821115610d2157600080fd5b610d2d8b838c01610b29565b909650945060608a0135915080821115610d4657600080fd5b50610d538a828b01610b29565b989b979a50959850939692959293505050565b60008060008060008060006080888a031215610d8157600080fd5b873567ffffffffffffffff80821115610d9957600080fd5b610da58b838c01610b29565b909950975060208a0135915080821115610dbe57600080fd5b610dca8b838c01610b29565b909750955060408a0135915080821115610de357600080fd5b50610df08a828b01610b29565b989b979a50959894979596606090950135949350505050565b8183823760009101908152919050565b81835281816020850137506000828201602090810191909152601f909101601f19169091010190565b89815260c060208201526000610e5c60c083018a8c610e19565b8281036040840152610e6f81898b610e19565b90508660608401528281036080840152610e8a818688610e19565b9150508260a08301529a9950505050505050505050565b600060208284031215610eb357600080fd5b81518015158114610cbb57600080fd5b600181811c90821680610ed757607f821691505b60208210811415610ef857634e487b7160e01b600052602260045260246000fd5b50919050565b868152608060208201526000610f18608083018789610e19565b8281036040840152610f2b818688610e19565b915050826060830152979650505050505050565b60008251610f51818460208701610c4c565b9190910192915050565b604081526000610f6f604083018587610e19565b9050826020830152949350505050565b60608152600080855481600182811c915080831680610f9f57607f831692505b6020808410821415610fbf57634e487b7160e01b86526022600452602486fd5b6060880184905260808801828015610fde5760018114610fef5761101a565b60ff1987168252828201975061101a565b60008d81526020902060005b8781101561101457815484820152908601908401610ffb565b83019850505b50508786038189015250505050506110328186610c7c565b905082810360408401526110468185610c7c565b9695505050505050565b600081518084526020808501808196508360051b8101915082860160005b85811015611098578284038952611086848351610c7c565b9885019893509084019060010161106e565b5091979650505050505050565b608081526013608082015272657865637574655f66726f6d5f72656d6f746560681b60a082015260c0602082015260006110e260c0830186611050565b82810360408401526110f48186611050565b905082810360608401526110468185610c7c565b8281526040602082015260006111216040830184610c7c565b949350505050565b600060018060a01b03808816835260a0602084015261114b60a0840188610c7c565b838103604085015261115d8188610c7c565b905083810360608501526111718187610c7c565b9250508084166080840152509695505050505050565b60608152600061119a6060830186610c7c565b82810360208401526110328186610c7c565b634e487b7160e01b600052601160045260246000fd5b60008160001904831182151516156111dc576111dc6111ac565b500290565b600082198211156111f4576111f46111ac565b500190565b634e487b7160e01b600052604160045260246000fd5b634e487b7160e01b600052603260045260246000fd5b6000600019821415611239576112396111ac565b506001019056fea26469706673582212204b3cbbc530b02818fc7998ca631620eab894ad36a1988e9ef1b58fefaddfc5a964736f6c63430008090033",
  "devdoc": {
    "kind": "dev",
    "methods": {},
    "version": 1
  },
  "userdoc": {
    "kind": "user",
    "methods": {},
    "version": 1
  },
  "storageLayout": {
    "storage": [
      {
        "astId": 1592,
        "contract": "contracts/TokenLinker.sol:TokenLinker",
        "label": "chainName",
        "offset": 0,
        "slot": "0",
        "type": "t_string_storage"
      },
      {
        "astId": 1594,
        "contract": "contracts/TokenLinker.sol:TokenLinker",
        "label": "tokenAddress",
        "offset": 0,
        "slot": "1",
        "type": "t_address"
      }
    ],
    "types": {
      "t_address": {
        "encoding": "inplace",
        "label": "address",
        "numberOfBytes": "20"
      },
      "t_string_storage": {
        "encoding": "bytes",
        "label": "string",
        "numberOfBytes": "32"
      }
    }
  }
}