{
  "address": "0x8f951aaEABDf4b1E5ca0b43844eEC89E23e13Ddd",
  "abi": [
    {
      "inputs": [
        {
          "internalType": "address",
          "name": "gateway_",
          "type": "address"
        },
        {
          "internalType": "address",
          "name": "gasReceiver_",
          "type": "address"
        },
        {
          "internalType": "string",
          "name": "chainName_",
          "type": "string"
        },
        {
          "internalType": "address",
          "name": "tokenAddress_",
          "type": "address"
        }
      ],
      "stateMutability": "nonpayable",
      "type": "constructor"
    },
    {
      "inputs": [],
      "name": "AlreadyInitialized",
      "type": "error"
    },
    {
      "inputs": [],
      "name": "AlreadyRegistered",
      "type": "error"
    },
    {
      "inputs": [],
      "name": "GatewayToken",
      "type": "error"
    },
    {
      "inputs": [],
      "name": "InvalidAddress",
      "type": "error"
    },
    {
      "inputs": [],
      "name": "InvalidDestinationChain",
      "type": "error"
    },
    {
      "inputs": [],
      "name": "NotApprovedByGateway",
      "type": "error"
    },
    {
      "inputs": [],
      "name": "TransferFailed",
      "type": "error"
    },
    {
      "inputs": [],
      "name": "TransferFromFailed",
      "type": "error"
    },
    {
      "anonymous": false,
      "inputs": [
        {
          "indexed": false,
          "internalType": "string",
          "name": "sourceChain",
          "type": "string"
        },
        {
          "indexed": false,
          "internalType": "string",
          "name": "sourceAddress",
          "type": "string"
        }
      ],
      "name": "FalseSender",
      "type": "event"
    },
    {
      "inputs": [],
      "name": "chainName",
      "outputs": [
        {
          "internalType": "string",
          "name": "",
          "type": "string"
        }
      ],
      "stateMutability": "view",
      "type": "function"
    },
    {
      "inputs": [
        {
          "internalType": "bytes32",
          "name": "commandId",
          "type": "bytes32"
        },
        {
          "internalType": "string",
          "name": "sourceChain",
          "type": "string"
        },
        {
          "internalType": "string",
          "name": "sourceAddress",
          "type": "string"
        },
        {
          "internalType": "bytes",
          "name": "payload",
          "type": "bytes"
        }
      ],
      "name": "execute",
      "outputs": [],
      "stateMutability": "nonpayable",
      "type": "function"
    },
    {
      "inputs": [
        {
          "internalType": "bytes32",
          "name": "commandId",
          "type": "bytes32"
        },
        {
          "internalType": "string",
          "name": "sourceChain",
          "type": "string"
        },
        {
          "internalType": "string",
          "name": "sourceAddress",
          "type": "string"
        },
        {
          "internalType": "bytes",
          "name": "payload",
          "type": "bytes"
        },
        {
          "internalType": "string",
          "name": "tokenSymbol",
          "type": "string"
        },
        {
          "internalType": "uint256",
          "name": "amount",
          "type": "uint256"
        }
      ],
      "name": "executeWithToken",
      "outputs": [],
      "stateMutability": "nonpayable",
      "type": "function"
    },
    {
      "inputs": [],
      "name": "gasService",
      "outputs": [
        {
          "internalType": "contract IAxelarGasService",
          "name": "",
          "type": "address"
        }
      ],
      "stateMutability": "view",
      "type": "function"
    },
    {
      "inputs": [],
      "name": "gateway",
      "outputs": [
        {
          "internalType": "contract IAxelarGateway",
          "name": "",
          "type": "address"
        }
      ],
      "stateMutability": "view",
      "type": "function"
    },
    {
      "inputs": [],
      "name": "tokenAddress",
      "outputs": [
        {
          "internalType": "address",
          "name": "",
          "type": "address"
        }
      ],
      "stateMutability": "view",
      "type": "function"
    },
    {
      "inputs": [
        {
          "internalType": "string",
          "name": "destinationChain",
          "type": "string"
        },
        {
          "internalType": "string",
          "name": "destinationContract",
          "type": "string"
        },
        {
          "internalType": "string",
          "name": "recipient",
          "type": "string"
        },
        {
          "internalType": "uint256",
          "name": "amount",
          "type": "uint256"
        }
      ],
      "name": "transferToCosmos",
      "outputs": [],
      "stateMutability": "payable",
      "type": "function"
    }
  ],
  "transactionHash": "0x315592c1d06500c322c84fe571e733918ddb06212c8f89f0dcd2c993ed9b929f",
  "args": [
    "0x4D147dCb984e6affEEC47e44293DA442580A3Ec0",
    "0x0000000000000000000000000000000000000000",
    "binance",
    "0xDE41332a508E363079FD6993B81De049cD362B6D"
  ],
  "numDeployments": 1,
  "solcInputHash": "4349aae434e7630b4edde1d8409e9459",
  "bytecode": "0x60c06040523480156200001157600080fd5b506040516200170b3803806200170b833981016040819052620000349162000189565b836001600160a01b0381166200005d5760405163e6c4247b60e01b815260040160405180910390fd5b6001600160a01b03908116608052831660a052815162000085906000906020850190620000b0565b50600180546001600160a01b0319166001600160a01b039290921691909117905550620002dd915050565b828054620000be90620002a0565b90600052602060002090601f016020900481019282620000e257600085556200012d565b82601f10620000fd57805160ff19168380011785556200012d565b828001600101855582156200012d579182015b828111156200012d57825182559160200191906001019062000110565b506200013b9291506200013f565b5090565b5b808211156200013b576000815560010162000140565b80516001600160a01b03811681146200016e57600080fd5b919050565b634e487b7160e01b600052604160045260246000fd5b60008060008060808587031215620001a057600080fd5b620001ab8562000156565b93506020620001bc81870162000156565b60408701519094506001600160401b0380821115620001da57600080fd5b818801915088601f830112620001ef57600080fd5b81518181111562000204576200020462000173565b604051601f8201601f19908116603f011681019083821181831017156200022f576200022f62000173565b816040528281528b868487010111156200024857600080fd5b600093505b828410156200026c57848401860151818501870152928501926200024d565b828411156200027e5760008684830101525b809750505050505050620002956060860162000156565b905092959194509250565b600181811c90821680620002b557607f821691505b60208210811415620002d757634e487b7160e01b600052602260045260246000fd5b50919050565b60805160a0516113ed6200031e6000396000818161013c01526107910152600081816087015281816101c201528181610342015261081a01526113ed6000f3fe6080604052600436106100705760003560e01c8063491606581161004e578063491606581461010a5780636a22d8cc1461012a5780639d76ea581461015e578063a97e22d31461017e57600080fd5b8063116191b6146100755780631a98b2e0146100c65780631c93b03a146100e8575b600080fd5b34801561008157600080fd5b506100a97f000000000000000000000000000000000000000000000000000000000000000081565b6040516001600160a01b0390911681526020015b60405180910390f35b3480156100d257600080fd5b506100e66100e1366004610ca1565b610191565b005b3480156100f457600080fd5b506100fd610283565b6040516100bd9190610dd7565b34801561011657600080fd5b506100e6610125366004610df1565b610311565b34801561013657600080fd5b506100a97f000000000000000000000000000000000000000000000000000000000000000081565b34801561016a57600080fd5b506001546100a9906001600160a01b031681565b6100e661018c366004610e95565b610408565b600085856040516101a3929190610f38565b604051908190038120631876eed960e01b825291506001600160a01b037f00000000000000000000000000000000000000000000000000000000000000001690631876eed990610207908e908e908e908e908e9089908d908d908d90600401610f71565b602060405180830381600087803b15801561022157600080fd5b505af1158015610235573d6000803e3d6000fd5b505050506040513d601f19601f820116820180604052508101906102599190610fd0565b61027657604051631403112d60e21b815260040160405180910390fd5b5050505050505050505050565b6000805461029090610ff2565b80601f01602080910402602001604051908101604052809291908181526020018280546102bc90610ff2565b80156103095780601f106102de57610100808354040283529160200191610309565b820191906000526020600020905b8154815290600101906020018083116102ec57829003601f168201915b505050505081565b60008282604051610323929190610f38565b604051908190038120635f6970c360e01b825291506001600160a01b037f00000000000000000000000000000000000000000000000000000000000000001690635f6970c390610381908b908b908b908b908b90899060040161102d565b602060405180830381600087803b15801561039b57600080fd5b505af11580156103af573d6000803e3d6000fd5b505050506040513d601f19601f820116820180604052508101906103d39190610fd0565b6103f057604051631403112d60e21b815260040160405180910390fd5b6103fe878787878787610498565b5050505050505050565b61041233826104b5565b600061041f8484846105c3565b90506103fe88888080601f01602080910402602001604051908101604052809392919081815260200183838082843760009201919091525050604080516020601f8c018190048102820181019092528a815292508a91508990819084018382808284376000920191909152508692503491506107749050565b6000806104a78385018561106e565b915091506103fe8282610881565b600154604080516001600160a01b038581166024830152306044830152606480830186905283518084039091018152608490920183526020820180516001600160e01b03166323b872dd60e01b179052915160009384931691610517916110a6565b6000604051808303816000865af19150503d8060008114610554576040519150601f19603f3d011682016040523d82523d6000602084013e610559565b606091505b509150915060008280156105855750815115806105855750818060200190518101906105859190610fd0565b905080158061059e57506001546001600160a01b03163b155b156105bc57604051631e4e7d0960e21b815260040160405180910390fd5b5050505050565b60606000806105d130610982565b8686866040516020016105e6939291906110c2565b60408051601f19818403018152908290526106059392916020016110e6565b604051602081830303815290604052905060006106a460405180606001604052806040518060400160405280600c81526020016b39b7bab931b2afb1b430b4b760a11b81525081526020016040518060400160405280600e81526020016d736f757263655f6164647265737360901b8152508152602001604051806040016040528060078152602001661c185e5b1bd85960ca1b815250815250610bcd565b610720604051806060016040528060405180604001604052806006815260200165737472696e6760d01b815250815260200160405180604001604052806006815260200165737472696e6760d01b815250815260200160405180604001604052806005815260200164627974657360d81b815250815250610bcd565b836040516020016107339392919061120c565b60408051601f1981840301815290829052915061075a90600160e01b90839060200161126f565b604051602081830303815290604052925050509392505050565b801561080357604051630c93e3bb60e01b81526001600160a01b037f00000000000000000000000000000000000000000000000000000000000000001690630c93e3bb9083906107d090309089908990899033906004016112a0565b6000604051808303818588803b1580156107e957600080fd5b505af11580156107fd573d6000803e3d6000fd5b50505050505b604051631c92115f60e01b81526001600160a01b037f00000000000000000000000000000000000000000000000000000000000000001690631c92115f90610853908790879087906004016112fe565b600060405180830381600087803b15801561086d57600080fd5b505af11580156103fe573d6000803e3d6000fd5b600154604080516001600160a01b038581166024830152604480830186905283518084039091018152606490920183526020820180516001600160e01b031663a9059cbb60e01b1790529151600093849316916108dd916110a6565b6000604051808303816000865af19150503d806000811461091a576040519150601f19603f3d011682016040523d82523d6000602084013e61091f565b606091505b5091509150600082801561094b57508151158061094b57508180602001905181019061094b9190610fd0565b905080158061096457506001546001600160a01b03163b155b156105bc576040516312171d8360e31b815260040160405180910390fd5b604051606082811b6bffffffffffffffffffffffff191660208301529060009060340160408051601f198184030181528282528051838301909252601083526f181899199a1a9b1b9c1cb0b131b232b360811b602084015280519093509091906000906109f0906002611339565b6109fb906002611358565b67ffffffffffffffff811115610a1357610a13611370565b6040519080825280601f01601f191660200182016040528015610a3d576020820181803683370190505b509050600360fc1b81600081518110610a5857610a58611386565b60200101906001600160f81b031916908160001a905350600f60fb1b81600181518110610a8757610a87611386565b60200101906001600160f81b031916908160001a90535060005b83811015610bc357826004868381518110610abe57610abe611386565b016020015182516001600160f81b031990911690911c60f81c908110610ae657610ae6611386565b01602001516001600160f81b03191682610b01836002611339565b610b0c906002611358565b81518110610b1c57610b1c611386565b60200101906001600160f81b031916908160001a90535082858281518110610b4657610b46611386565b602091010151815160f89190911c600f16908110610b6657610b66611386565b01602001516001600160f81b03191682610b81836002611339565b610b8c906003611358565b81518110610b9c57610b9c611386565b60200101906001600160f81b031916908160001a905350610bbc8161139c565b9050610aa1565b5095945050505050565b606060408051600380825260808201909252600091816020015b6060815260200190600190039081610be757905050905060005b6003811015610c5157838160038110610c1c57610c1c611386565b6020020151828281518110610c3357610c33611386565b60200260200101819052508080610c499061139c565b915050610c01565b5092915050565b60008083601f840112610c6a57600080fd5b50813567ffffffffffffffff811115610c8257600080fd5b602083019150836020828501011115610c9a57600080fd5b9250929050565b60008060008060008060008060008060c08b8d031215610cc057600080fd5b8a35995060208b013567ffffffffffffffff80821115610cdf57600080fd5b610ceb8e838f01610c58565b909b50995060408d0135915080821115610d0457600080fd5b610d108e838f01610c58565b909950975060608d0135915080821115610d2957600080fd5b610d358e838f01610c58565b909750955060808d0135915080821115610d4e57600080fd5b50610d5b8d828e01610c58565b9150809450508092505060a08b013590509295989b9194979a5092959850565b60005b83811015610d96578181015183820152602001610d7e565b83811115610da5576000848401525b50505050565b60008151808452610dc3816020860160208601610d7b565b601f01601f19169290920160200192915050565b602081526000610dea6020830184610dab565b9392505050565b60008060008060008060006080888a031215610e0c57600080fd5b87359650602088013567ffffffffffffffff80821115610e2b57600080fd5b610e378b838c01610c58565b909850965060408a0135915080821115610e5057600080fd5b610e5c8b838c01610c58565b909650945060608a0135915080821115610e7557600080fd5b50610e828a828b01610c58565b989b979a50959850939692959293505050565b60008060008060008060006080888a031215610eb057600080fd5b873567ffffffffffffffff80821115610ec857600080fd5b610ed48b838c01610c58565b909950975060208a0135915080821115610eed57600080fd5b610ef98b838c01610c58565b909750955060408a0135915080821115610f1257600080fd5b50610f1f8a828b01610c58565b989b979a50959894979596606090950135949350505050565b8183823760009101908152919050565b81835281816020850137506000828201602090810191909152601f909101601f19169091010190565b89815260c060208201526000610f8b60c083018a8c610f48565b8281036040840152610f9e81898b610f48565b90508660608401528281036080840152610fb9818688610f48565b9150508260a08301529a9950505050505050505050565b600060208284031215610fe257600080fd5b81518015158114610dea57600080fd5b600181811c9082168061100657607f821691505b6020821081141561102757634e487b7160e01b600052602260045260246000fd5b50919050565b868152608060208201526000611047608083018789610f48565b828103604084015261105a818688610f48565b915050826060830152979650505050505050565b6000806040838503121561108157600080fd5b82356001600160a01b038116811461109857600080fd5b946020939093013593505050565b600082516110b8818460208701610d7b565b9190910192915050565b6040815260006110d6604083018587610f48565b9050826020830152949350505050565b60608152600080855481600182811c91508083168061110657607f831692505b602080841082141561112657634e487b7160e01b86526022600452602486fd5b6060880184905260808801828015611145576001811461115657611181565b60ff19871682528282019750611181565b60008d81526020902060005b8781101561117b57815484820152908601908401611162565b83019850505b50508786038189015250505050506111998186610dab565b905082810360408401526111ad8185610dab565b9695505050505050565b600081518084526020808501808196508360051b8101915082860160005b858110156111ff5782840389526111ed848351610dab565b988501989350908401906001016111d5565b5091979650505050505050565b608081526013608082015272657865637574655f66726f6d5f72656d6f746560681b60a082015260c06020820152600061124960c08301866111b7565b828103604084015261125b81866111b7565b905082810360608401526111ad8185610dab565b6001600160e01b0319831681528151600090611292816004850160208701610d7b565b919091016004019392505050565b600060018060a01b03808816835260a060208401526112c260a0840188610dab565b83810360408501526112d48188610dab565b905083810360608501526112e88187610dab565b9250508084166080840152509695505050505050565b6060815260006113116060830186610dab565b82810360208401526111998186610dab565b634e487b7160e01b600052601160045260246000fd5b600081600019048311821515161561135357611353611323565b500290565b6000821982111561136b5761136b611323565b500190565b634e487b7160e01b600052604160045260246000fd5b634e487b7160e01b600052603260045260246000fd5b60006000198214156113b0576113b0611323565b506001019056fea26469706673582212202f7177971eff91cdf7ea154b6135069c1f0651936855f2e719488e85f6d861c264736f6c63430008090033",
  "devdoc": {
    "kind": "dev",
    "methods": {},
    "version": 1
  },
  "userdoc": {
    "kind": "user",
    "methods": {},
    "version": 1
  },
  "storageLayout": {
    "storage": [
      {
        "astId": 1593,
        "contract": "contracts/TokenLinker.sol:TokenLinker",
        "label": "chainName",
        "offset": 0,
        "slot": "0",
        "type": "t_string_storage"
      },
      {
        "astId": 1595,
        "contract": "contracts/TokenLinker.sol:TokenLinker",
        "label": "tokenAddress",
        "offset": 0,
        "slot": "1",
        "type": "t_address"
      }
    ],
    "types": {
      "t_address": {
        "encoding": "inplace",
        "label": "address",
        "numberOfBytes": "20"
      },
      "t_string_storage": {
        "encoding": "bytes",
        "label": "string",
        "numberOfBytes": "32"
      }
    }
  }
}